:020000020000FC
:0200000022C01C
:1000040000C00F931F931FB729B3232739B324FFCD
:1000140006C000C022D007E0CC9B2AD00EC023FF2C
:1000240006C000C01AD006E0CB9B22D006C022FF37
:1000340004C013D005E0CA9B1BD01FBF1F910F91B2
:1000440018950FED0DBF00EE0ABB0CE10BBB00E1F0
:100054000BBF3FEF78940000FECF0F931F931FEF69
:1000640006E90A95F1F71A95D9F71F910F910895AA
:100074000F931F932F9319B3202F01E0000F2A959C
:0E008400E9F710271BBB2F911F910F910895D4
:00000001FF
